{
  "_format": "hh-sol-artifact-1",
  "contractName": "SyntheX",
  "sourceName": "contracts/SyntheX.sol",
  "abi": [
    {
      "anonymous": false,
      "inputs": [
        {
          "indexed": true,
          "internalType": "address",
          "name": "user",
          "type": "address"
        },
        {
          "indexed": true,
          "internalType": "address",
          "name": "tradingPool",
          "type": "address"
        },
        {
          "indexed": true,
          "internalType": "address",
          "name": "asset",
          "type": "address"
        },
        {
          "indexed": false,
          "internalType": "uint256",
          "name": "amount",
          "type": "uint256"
        }
      ],
      "name": "Burn",
      "type": "event"
    },
    {
      "anonymous": false,
      "inputs": [
        {
          "indexed": true,
          "internalType": "address",
          "name": "asset",
          "type": "address"
        }
      ],
      "name": "CollateralDisabled",
      "type": "event"
    },
    {
      "anonymous": false,
      "inputs": [
        {
          "indexed": true,
          "internalType": "address",
          "name": "asset",
          "type": "address"
        },
        {
          "indexed": false,
          "internalType": "uint256",
          "name": "volatilityRatio",
          "type": "uint256"
        }
      ],
      "name": "CollateralEnabled",
      "type": "event"
    },
    {
      "anonymous": false,
      "inputs": [
        {
          "indexed": true,
          "internalType": "address",
          "name": "asset",
          "type": "address"
        }
      ],
      "name": "CollateralRemoved",
      "type": "event"
    },
    {
      "anonymous": false,
      "inputs": [
        {
          "indexed": true,
          "internalType": "address",
          "name": "user",
          "type": "address"
        },
        {
          "indexed": true,
          "internalType": "address",
          "name": "asset",
          "type": "address"
        },
        {
          "indexed": false,
          "internalType": "uint256",
          "name": "amount",
          "type": "uint256"
        }
      ],
      "name": "Deposit",
      "type": "event"
    },
    {
      "anonymous": false,
      "inputs": [
        {
          "indexed": true,
          "internalType": "address",
          "name": "user",
          "type": "address"
        },
        {
          "indexed": true,
          "internalType": "address",
          "name": "tradingPool",
          "type": "address"
        },
        {
          "indexed": true,
          "internalType": "address",
          "name": "fromAsset",
          "type": "address"
        },
        {
          "indexed": false,
          "internalType": "address",
          "name": "toAsset",
          "type": "address"
        },
        {
          "indexed": false,
          "internalType": "uint256",
          "name": "fromAmount",
          "type": "uint256"
        },
        {
          "indexed": false,
          "internalType": "uint256",
          "name": "toAmount",
          "type": "uint256"
        }
      ],
      "name": "Exchange",
      "type": "event"
    },
    {
      "anonymous": false,
      "inputs": [
        {
          "indexed": true,
          "internalType": "address",
          "name": "user",
          "type": "address"
        },
        {
          "indexed": true,
          "internalType": "address",
          "name": "tradingPool",
          "type": "address"
        },
        {
          "indexed": true,
          "internalType": "address",
          "name": "asset",
          "type": "address"
        },
        {
          "indexed": false,
          "internalType": "uint256",
          "name": "amount",
          "type": "uint256"
        }
      ],
      "name": "Issue",
      "type": "event"
    },
    {
      "anonymous": false,
      "inputs": [
        {
          "indexed": true,
          "internalType": "address",
          "name": "oracle",
          "type": "address"
        }
      ],
      "name": "NewPriceOracle",
      "type": "event"
    },
    {
      "anonymous": false,
      "inputs": [
        {
          "indexed": true,
          "internalType": "address",
          "name": "previousOwner",
          "type": "address"
        },
        {
          "indexed": true,
          "internalType": "address",
          "name": "newOwner",
          "type": "address"
        }
      ],
      "name": "OwnershipTransferred",
      "type": "event"
    },
    {
      "anonymous": false,
      "inputs": [
        {
          "indexed": true,
          "internalType": "address",
          "name": "pool",
          "type": "address"
        }
      ],
      "name": "TradingPoolDisabled",
      "type": "event"
    },
    {
      "anonymous": false,
      "inputs": [
        {
          "indexed": true,
          "internalType": "address",
          "name": "pool",
          "type": "address"
        },
        {
          "indexed": false,
          "internalType": "uint256",
          "name": "volatilityRatio",
          "type": "uint256"
        }
      ],
      "name": "TradingPoolEnabled",
      "type": "event"
    },
    {
      "anonymous": false,
      "inputs": [
        {
          "indexed": true,
          "internalType": "address",
          "name": "pool",
          "type": "address"
        }
      ],
      "name": "TradingPoolRemoved",
      "type": "event"
    },
    {
      "anonymous": false,
      "inputs": [
        {
          "indexed": true,
          "internalType": "address",
          "name": "user",
          "type": "address"
        },
        {
          "indexed": true,
          "internalType": "address",
          "name": "asset",
          "type": "address"
        },
        {
          "indexed": false,
          "internalType": "uint256",
          "name": "amount",
          "type": "uint256"
        }
      ],
      "name": "Withdraw",
      "type": "event"
    },
    {
      "inputs": [
        {
          "internalType": "address",
          "name": "",
          "type": "address"
        }
      ],
      "name": "accountCollateralBalance",
      "outputs": [
        {
          "internalType": "uint256",
          "name": "",
          "type": "uint256"
        }
      ],
      "stateMutability": "view",
      "type": "function"
    },
    {
      "inputs": [
        {
          "internalType": "address",
          "name": "",
          "type": "address"
        },
        {
          "internalType": "uint256",
          "name": "",
          "type": "uint256"
        }
      ],
      "name": "accountCollaterals",
      "outputs": [
        {
          "internalType": "address",
          "name": "",
          "type": "address"
        }
      ],
      "stateMutability": "view",
      "type": "function"
    },
    {
      "inputs": [
        {
          "internalType": "address",
          "name": "",
          "type": "address"
        },
        {
          "internalType": "uint256",
          "name": "",
          "type": "uint256"
        }
      ],
      "name": "accountPools",
      "outputs": [
        {
          "internalType": "address",
          "name": "",
          "type": "address"
        }
      ],
      "stateMutability": "view",
      "type": "function"
    },
    {
      "inputs": [
        {
          "internalType": "address",
          "name": "_tradingPool",
          "type": "address"
        },
        {
          "internalType": "address",
          "name": "_synth",
          "type": "address"
        },
        {
          "internalType": "uint256",
          "name": "_amount",
          "type": "uint256"
        }
      ],
      "name": "burn",
      "outputs": [],
      "stateMutability": "nonpayable",
      "type": "function"
    },
    {
      "inputs": [
        {
          "internalType": "address",
          "name": "market",
          "type": "address"
        },
        {
          "internalType": "address",
          "name": "account",
          "type": "address"
        }
      ],
      "name": "collateralMembership",
      "outputs": [
        {
          "internalType": "bool",
          "name": "",
          "type": "bool"
        }
      ],
      "stateMutability": "view",
      "type": "function"
    },
    {
      "inputs": [
        {
          "internalType": "address",
          "name": "",
          "type": "address"
        }
      ],
      "name": "collaterals",
      "outputs": [
        {
          "internalType": "bool",
          "name": "isEnabled",
          "type": "bool"
        },
        {
          "internalType": "uint256",
          "name": "volatilityRatio",
          "type": "uint256"
        }
      ],
      "stateMutability": "view",
      "type": "function"
    },
    {
      "inputs": [
        {
          "internalType": "uint256",
          "name": "",
          "type": "uint256"
        }
      ],
      "name": "collateralsList",
      "outputs": [
        {
          "internalType": "address",
          "name": "",
          "type": "address"
        }
      ],
      "stateMutability": "view",
      "type": "function"
    },
    {
      "inputs": [
        {
          "internalType": "address",
          "name": "_collateral",
          "type": "address"
        },
        {
          "internalType": "uint256",
          "name": "_amount",
          "type": "uint256"
        }
      ],
      "name": "deposit",
      "outputs": [],
      "stateMutability": "nonpayable",
      "type": "function"
    },
    {
      "inputs": [
        {
          "internalType": "address",
          "name": "_collateral",
          "type": "address"
        }
      ],
      "name": "disableCollateral",
      "outputs": [],
      "stateMutability": "nonpayable",
      "type": "function"
    },
    {
      "inputs": [
        {
          "internalType": "address",
          "name": "_tradingPool",
          "type": "address"
        }
      ],
      "name": "disableTradingPool",
      "outputs": [],
      "stateMutability": "nonpayable",
      "type": "function"
    },
    {
      "inputs": [
        {
          "internalType": "address",
          "name": "_collateral",
          "type": "address"
        },
        {
          "internalType": "uint256",
          "name": "_volatilityRatio",
          "type": "uint256"
        }
      ],
      "name": "enableCollateral",
      "outputs": [],
      "stateMutability": "nonpayable",
      "type": "function"
    },
    {
      "inputs": [
        {
          "internalType": "address",
          "name": "_tradingPool",
          "type": "address"
        },
        {
          "internalType": "uint256",
          "name": "_volatilityRatio",
          "type": "uint256"
        }
      ],
      "name": "enableTradingPool",
      "outputs": [],
      "stateMutability": "nonpayable",
      "type": "function"
    },
    {
      "inputs": [
        {
          "internalType": "address",
          "name": "_collateral",
          "type": "address"
        },
        {
          "internalType": "uint256",
          "name": "_amount",
          "type": "uint256"
        }
      ],
      "name": "enterAndDeposit",
      "outputs": [],
      "stateMutability": "nonpayable",
      "type": "function"
    },
    {
      "inputs": [
        {
          "internalType": "address",
          "name": "_tradingPool",
          "type": "address"
        },
        {
          "internalType": "address",
          "name": "_synth",
          "type": "address"
        },
        {
          "internalType": "uint256",
          "name": "_amount",
          "type": "uint256"
        }
      ],
      "name": "enterAndIssue",
      "outputs": [],
      "stateMutability": "nonpayable",
      "type": "function"
    },
    {
      "inputs": [
        {
          "internalType": "address",
          "name": "_collateral",
          "type": "address"
        }
      ],
      "name": "enterCollateral",
      "outputs": [],
      "stateMutability": "nonpayable",
      "type": "function"
    },
    {
      "inputs": [
        {
          "internalType": "address",
          "name": "_tradingPool",
          "type": "address"
        }
      ],
      "name": "enterPool",
      "outputs": [],
      "stateMutability": "nonpayable",
      "type": "function"
    },
    {
      "inputs": [
        {
          "internalType": "address",
          "name": "_tradingPool",
          "type": "address"
        },
        {
          "internalType": "address",
          "name": "_synthFrom",
          "type": "address"
        },
        {
          "internalType": "address",
          "name": "_synthTo",
          "type": "address"
        },
        {
          "internalType": "uint256",
          "name": "_amount",
          "type": "uint256"
        }
      ],
      "name": "exchange",
      "outputs": [],
      "stateMutability": "nonpayable",
      "type": "function"
    },
    {
      "inputs": [
        {
          "internalType": "address",
          "name": "_collateral",
          "type": "address"
        }
      ],
      "name": "exitCollateral",
      "outputs": [],
      "stateMutability": "nonpayable",
      "type": "function"
    },
    {
      "inputs": [
        {
          "internalType": "address",
          "name": "_tradingPool",
          "type": "address"
        }
      ],
      "name": "exitPool",
      "outputs": [],
      "stateMutability": "nonpayable",
      "type": "function"
    },
    {
      "inputs": [
        {
          "internalType": "address",
          "name": "_account",
          "type": "address"
        }
      ],
      "name": "getAdjustedUserTotalCollateralUSD",
      "outputs": [
        {
          "internalType": "uint256",
          "name": "",
          "type": "uint256"
        }
      ],
      "stateMutability": "view",
      "type": "function"
    },
    {
      "inputs": [
        {
          "internalType": "address",
          "name": "_account",
          "type": "address"
        }
      ],
      "name": "getAdjustedUserTotalDebtUSD",
      "outputs": [
        {
          "internalType": "uint256",
          "name": "",
          "type": "uint256"
        }
      ],
      "stateMutability": "view",
      "type": "function"
    },
    {
      "inputs": [
        {
          "internalType": "address",
          "name": "_tradingPool",
          "type": "address"
        }
      ],
      "name": "getPoolTotalDebtUSD",
      "outputs": [
        {
          "internalType": "uint256",
          "name": "",
          "type": "uint256"
        }
      ],
      "stateMutability": "view",
      "type": "function"
    },
    {
      "inputs": [
        {
          "internalType": "address",
          "name": "_account",
          "type": "address"
        },
        {
          "internalType": "address",
          "name": "_tradingPool",
          "type": "address"
        }
      ],
      "name": "getUserPoolDebtUSD",
      "outputs": [
        {
          "internalType": "uint256",
          "name": "",
          "type": "uint256"
        }
      ],
      "stateMutability": "view",
      "type": "function"
    },
    {
      "inputs": [
        {
          "internalType": "address",
          "name": "_account",
          "type": "address"
        }
      ],
      "name": "getUserTotalCollateralUSD",
      "outputs": [
        {
          "internalType": "uint256",
          "name": "",
          "type": "uint256"
        }
      ],
      "stateMutability": "view",
      "type": "function"
    },
    {
      "inputs": [
        {
          "internalType": "address",
          "name": "_account",
          "type": "address"
        }
      ],
      "name": "getUserTotalDebtUSD",
      "outputs": [
        {
          "internalType": "uint256",
          "name": "",
          "type": "uint256"
        }
      ],
      "stateMutability": "view",
      "type": "function"
    },
    {
      "inputs": [
        {
          "internalType": "address",
          "name": "_account",
          "type": "address"
        }
      ],
      "name": "healthFactor",
      "outputs": [
        {
          "internalType": "uint256",
          "name": "",
          "type": "uint256"
        }
      ],
      "stateMutability": "view",
      "type": "function"
    },
    {
      "inputs": [
        {
          "internalType": "address",
          "name": "_tradingPool",
          "type": "address"
        },
        {
          "internalType": "address",
          "name": "_synth",
          "type": "address"
        },
        {
          "internalType": "uint256",
          "name": "_amount",
          "type": "uint256"
        }
      ],
      "name": "issue",
      "outputs": [],
      "stateMutability": "nonpayable",
      "type": "function"
    },
    {
      "inputs": [
        {
          "internalType": "address",
          "name": "_account",
          "type": "address"
        },
        {
          "internalType": "address",
          "name": "_tradingPool",
          "type": "address"
        },
        {
          "internalType": "address",
          "name": "_inAsset",
          "type": "address"
        },
        {
          "internalType": "uint256",
          "name": "_inAmount",
          "type": "uint256"
        },
        {
          "internalType": "address",
          "name": "_outAsset",
          "type": "address"
        }
      ],
      "name": "liquidate",
      "outputs": [],
      "stateMutability": "nonpayable",
      "type": "function"
    },
    {
      "inputs": [],
      "name": "oracle",
      "outputs": [
        {
          "internalType": "contract PriceOracle",
          "name": "",
          "type": "address"
        }
      ],
      "stateMutability": "view",
      "type": "function"
    },
    {
      "inputs": [],
      "name": "owner",
      "outputs": [
        {
          "internalType": "address",
          "name": "",
          "type": "address"
        }
      ],
      "stateMutability": "view",
      "type": "function"
    },
    {
      "inputs": [
        {
          "internalType": "address",
          "name": "_collateral",
          "type": "address"
        }
      ],
      "name": "removeCollateral",
      "outputs": [],
      "stateMutability": "nonpayable",
      "type": "function"
    },
    {
      "inputs": [
        {
          "internalType": "address",
          "name": "_tradingPool",
          "type": "address"
        }
      ],
      "name": "removeTradingPool",
      "outputs": [],
      "stateMutability": "nonpayable",
      "type": "function"
    },
    {
      "inputs": [],
      "name": "renounceOwnership",
      "outputs": [],
      "stateMutability": "nonpayable",
      "type": "function"
    },
    {
      "inputs": [
        {
          "internalType": "address",
          "name": "_oracle",
          "type": "address"
        }
      ],
      "name": "setOracle",
      "outputs": [],
      "stateMutability": "nonpayable",
      "type": "function"
    },
    {
      "inputs": [
        {
          "internalType": "address",
          "name": "market",
          "type": "address"
        },
        {
          "internalType": "address",
          "name": "account",
          "type": "address"
        }
      ],
      "name": "tradingPoolMembership",
      "outputs": [
        {
          "internalType": "bool",
          "name": "",
          "type": "bool"
        }
      ],
      "stateMutability": "view",
      "type": "function"
    },
    {
      "inputs": [
        {
          "internalType": "address",
          "name": "",
          "type": "address"
        }
      ],
      "name": "tradingPools",
      "outputs": [
        {
          "internalType": "bool",
          "name": "isEnabled",
          "type": "bool"
        },
        {
          "internalType": "uint256",
          "name": "volatilityRatio",
          "type": "uint256"
        }
      ],
      "stateMutability": "view",
      "type": "function"
    },
    {
      "inputs": [
        {
          "internalType": "uint256",
          "name": "",
          "type": "uint256"
        }
      ],
      "name": "tradingPoolsList",
      "outputs": [
        {
          "internalType": "address",
          "name": "",
          "type": "address"
        }
      ],
      "stateMutability": "view",
      "type": "function"
    },
    {
      "inputs": [
        {
          "internalType": "address",
          "name": "newOwner",
          "type": "address"
        }
      ],
      "name": "transferOwnership",
      "outputs": [],
      "stateMutability": "nonpayable",
      "type": "function"
    },
    {
      "inputs": [
        {
          "internalType": "address",
          "name": "_collateral",
          "type": "address"
        },
        {
          "internalType": "uint256",
          "name": "_amount",
          "type": "uint256"
        }
      ],
      "name": "withdraw",
      "outputs": [],
      "stateMutability": "nonpayable",
      "type": "function"
    }
  ],
  "bytecode": "0x60806040523480156200001157600080fd5b5062000032620000266200003860201b60201c565b6200004060201b60201c565b62000104565b600033905090565b60008060009054906101000a900473ffffffffffffffffffffffffffffffffffffffff169050816000806101000a81548173ffffffffffffffffffffffffffffffffffffffff021916908373ffffffffffffffffffffffffffffffffffffffff1602179055508173ffffffffffffffffffffffffffffffffffffffff168173ffffffffffffffffffffffffffffffffffffffff167f8be0079c531659141344cd1fd0a4f28419497f9722a3daafe3b4186f6b6457e060405160405180910390a35050565b614c9580620001146000396000f3fe608060405234801561001057600080fd5b506004361061023d5760003560e01c8063aed0bf881161013b578063eeb97d3b116100b8578063f6b911bc1161007c578063f6b911bc14610706578063fca3508b14610722578063fd1e8c8514610752578063fe35ea951461076e578063ffd10e071461079e5761023d565b8063eeb97d3b14610665578063ef9fb99114610696578063f2fde38b146106b2578063f3fef3a3146106ce578063f43100cf146106ea5761023d565b8063c99d3a06116100ff578063c99d3a0614610589578063caca550f146105a5578063db46f702146105d5578063ec3b8f1a14610605578063edc280c1146106355761023d565b8063aed0bf88146104d4578063b358189814610504578063b613999214610535578063b7f85d0f14610551578063ba5a2d331461056d5761023d565b80634b2bc5df116101c95780637adbf9731161018d5780637adbf973146104305780637dc0d1d01461044c5780638da5cb5b1461046a578063a982493114610488578063aa3b3a1e146104a45761023d565b80634b2bc5df1461038e5780636ad9f9df146103aa578063715018a6146103da57806375c038b7146103e457806378c5266b146104005761023d565b806329553e991161021057806329553e99146102ee5780632cf41e251461030a578063334bc6011461032657806344f7a1b01461035657806347e7ef24146103725761023d565b80630b0d33791461024257806315deef4b1461025e5780631b57d1ac1461028e5780632558626d146102be575b600080fd5b61025c60048036038101906102579190613fc0565b6107ba565b005b61027860048036038101906102739190614027565b610a05565b6040516102859190614063565b60405180910390f35b6102a860048036038101906102a3919061407e565b610b2f565b6040516102b591906140cd565b60405180910390f35b6102d860048036038101906102d391906140e8565b610b7d565b6040516102e59190614063565b60405180910390f35b61030860048036038101906103039190614027565b610cf3565b005b610324600480360381019061031f919061407e565b610df2565b005b610340600480360381019061033b9190614027565b610e09565b60405161034d9190614063565b60405180910390f35b610370600480360381019061036b9190614027565b610e21565b005b61038c6004803603810190610387919061407e565b611057565b005b6103a860048036038101906103a39190614128565b6112f2565b005b6103c460048036038101906103bf9190614027565b611903565b6040516103d19190614063565b60405180910390f35b6103e2611979565b005b6103fe60048036038101906103f99190614027565b61198d565b005b61041a6004803603810190610415919061407e565b611a8c565b60405161042791906140cd565b60405180910390f35b61044a60048036038101906104459190614027565b611ada565b005b610454611b69565b6040516104619190614202565b60405180910390f35b610472611b8f565b60405161047f91906140cd565b60405180910390f35b6104a2600480360381019061049d9190614027565b611bb8565b005b6104be60048036038101906104b991906140e8565b611cf3565b6040516104cb9190614238565b60405180910390f35b6104ee60048036038101906104e991906140e8565b611d8a565b6040516104fb9190614238565b60405180910390f35b61051e60048036038101906105199190614027565b611e21565b60405161052c929190614253565b60405180910390f35b61054f600480360381019061054a919061427c565b611e52565b005b61056b60048036038101906105669190614027565b612195565b005b61058760048036038101906105829190614027565b61252b565b005b6105a3600480360381019061059e9190614027565b6128c1565b005b6105bf60048036038101906105ba91906142cf565b612af7565b6040516105cc91906140cd565b60405180910390f35b6105ef60048036038101906105ea91906142cf565b612b36565b6040516105fc91906140cd565b60405180910390f35b61061f600480360381019061061a9190614027565b612b75565b60405161062c9190614063565b60405180910390f35b61064f600480360381019061064a9190614027565b612dc1565b60405161065c9190614063565b60405180910390f35b61067f600480360381019061067a9190614027565b612f6b565b60405161068d929190614253565b60405180910390f35b6106b060048036038101906106ab919061427c565b612f9c565b005b6106cc60048036038101906106c79190614027565b612fb5565b005b6106e860048036038101906106e3919061407e565b613038565b005b61070460048036038101906106ff919061407e565b61324a565b005b610720600480360381019061071b919061427c565b613388565b005b61073c60048036038101906107379190614027565b6136cb565b6040516107499190614063565b60405180910390f35b61076c6004803603810190610767919061407e565b6138c4565b005b61078860048036038101906107839190614027565b613a02565b6040516107959190614063565b60405180910390f35b6107b860048036038101906107b39190614027565b613c4e565b005b6000600160009054906101000a900473ffffffffffffffffffffffffffffffffffffffff1673ffffffffffffffffffffffffffffffffffffffff166341976e09846040518263ffffffff1660e01b815260040161081791906140cd565b602060405180830381865afa158015610834573d6000803e3d6000fd5b505050506040513d601f19601f820116820180604052508101906108589190614311565b600160009054906101000a900473ffffffffffffffffffffffffffffffffffffffff1673ffffffffffffffffffffffffffffffffffffffff166341976e09866040518263ffffffff1660e01b81526004016108b391906140cd565b602060405180830381865afa1580156108d0573d6000803e3d6000fd5b505050506040513d601f19601f820116820180604052508101906108f49190614311565b836108ff919061436d565b61090991906143de565b90508473ffffffffffffffffffffffffffffffffffffffff16634798ce5b85853386866040518663ffffffff1660e01b815260040161094c95949392919061440f565b600060405180830381600087803b15801561096657600080fd5b505af115801561097a573d6000803e3d6000fd5b505050508373ffffffffffffffffffffffffffffffffffffffff168573ffffffffffffffffffffffffffffffffffffffff163373ffffffffffffffffffffffffffffffffffffffff167f22bfc3d7b9d92e3f2b35d94c61a1a9f1c86d0793bb7645294eaf8beb03c034798686866040516109f693929190614462565b60405180910390a45050505050565b600080600090506000600260008573ffffffffffffffffffffffffffffffffffffffff1673ffffffffffffffffffffffffffffffffffffffff168152602001908152602001600020805480602002602001604051908101604052809291908181526020018280548015610acd57602002820191906000526020600020905b8160009054906101000a900473ffffffffffffffffffffffffffffffffffffffff1673ffffffffffffffffffffffffffffffffffffffff1681526020019060010190808311610a83575b5050505050905060005b8151811015610b2457610b0485838381518110610af757610af6614499565b5b6020026020010151610b7d565b83610b0f91906144c8565b92508080610b1c906144fc565b915050610ad7565b508192505050919050565b60036020528160005260406000208181548110610b4b57600080fd5b906000526020600020016000915091509054906101000a900473ffffffffffffffffffffffffffffffffffffffff1681565b6000808273ffffffffffffffffffffffffffffffffffffffff166318160ddd6040518163ffffffff1660e01b8152600401602060405180830381865afa158015610bcb573d6000803e3d6000fd5b505050506040513d601f19601f82011682018060405250810190610bef9190614311565b905060008103610c03576000915050610ced565b6000610cab82610c9d670de0b6b3a76400008773ffffffffffffffffffffffffffffffffffffffff166370a082318a6040518263ffffffff1660e01b8152600401610c4e91906140cd565b602060405180830381865afa158015610c6b573d6000803e3d6000fd5b505050506040513d601f19601f82011682018060405250810190610c8f9190614311565b613d8990919063ffffffff16565b613d9f90919063ffffffff16565b90506000610cb8856136cb565b9050610ce7670de0b6b3a7640000610cd98385613d8990919063ffffffff16565b613d9f90919063ffffffff16565b93505050505b92915050565b610cfb613db5565b600560008273ffffffffffffffffffffffffffffffffffffffff1673ffffffffffffffffffffffffffffffffffffffff16815260200190815260200160002060000160009054906101000a900460ff1615610def576000600560008373ffffffffffffffffffffffffffffffffffffffff1673ffffffffffffffffffffffffffffffffffffffff16815260200190815260200160002060000160006101000a81548160ff0219169083151502179055508073ffffffffffffffffffffffffffffffffffffffff167f40df287591e0c328c46e4a6e6a392c11257b2068c75575828d622838c83efd3a60405160405180910390a25b50565b610dfb82611bb8565b610e058282611057565b5050565b60046020528060005260406000206000915090505481565b610e29613db5565b6000600560008373ffffffffffffffffffffffffffffffffffffffff1673ffffffffffffffffffffffffffffffffffffffff16815260200190815260200160002060000160006101000a81548160ff02191690831515021790555060005b600780549050811015611053578173ffffffffffffffffffffffffffffffffffffffff1660078281548110610ebf57610ebe614499565b5b9060005260206000200160009054906101000a900473ffffffffffffffffffffffffffffffffffffffff1673ffffffffffffffffffffffffffffffffffffffff16036110405760076001600780549050610f199190614544565b81548110610f2a57610f29614499565b5b9060005260206000200160009054906101000a900473ffffffffffffffffffffffffffffffffffffffff1660078281548110610f6957610f68614499565b5b9060005260206000200160006101000a81548173ffffffffffffffffffffffffffffffffffffffff021916908373ffffffffffffffffffffffffffffffffffffffff1602179055506007805480610fc357610fc2614578565b5b6001900381819060005260206000200160006101000a81549073ffffffffffffffffffffffffffffffffffffffff021916905590558173ffffffffffffffffffffffffffffffffffffffff167fd7bc7aa3441295e542e42197effcd361e36921102724a91445e9dd47f19ddcbc60405160405180910390a2611053565b808061104b906144fc565b915050610e87565b5050565b600660008373ffffffffffffffffffffffffffffffffffffffff1673ffffffffffffffffffffffffffffffffffffffff16815260200190815260200160002060000160009054906101000a900460ff166110e6576040517f08c379a00000000000000000000000000000000000000000000000000000000081526004016110dd90614604565b60405180910390fd5b600660008373ffffffffffffffffffffffffffffffffffffffff1673ffffffffffffffffffffffffffffffffffffffff16815260200190815260200160002060020160003373ffffffffffffffffffffffffffffffffffffffff1673ffffffffffffffffffffffffffffffffffffffff16815260200190815260200160002060009054906101000a900460ff166111b2576040517f08c379a00000000000000000000000000000000000000000000000000000000081526004016111a990614670565b60405180910390fd5b8173ffffffffffffffffffffffffffffffffffffffff166323b872dd3330846040518463ffffffff1660e01b81526004016111ef93929190614690565b6020604051808303816000875af115801561120e573d6000803e3d6000fd5b505050506040513d601f19601f8201168201806040525081019061123291906146f3565b5080600460003373ffffffffffffffffffffffffffffffffffffffff1673ffffffffffffffffffffffffffffffffffffffff168152602001908152602001600020600082825461128291906144c8565b925050819055508173ffffffffffffffffffffffffffffffffffffffff163373ffffffffffffffffffffffffffffffffffffffff167f5548c837ab068cf56a2c2479df0882a4922fd203edb7517321831d95078c5f62836040516112e69190614063565b60405180910390a35050565b60006112fd86611903565b9050670de0b6b3a76400008110611349576040517f08c379a00000000000000000000000000000000000000000000000000000000081526004016113409061476c565b60405180910390fd5b6000600282670de0b6b3a76400006113619190614544565b61136b91906143de565b90506000600660008573ffffffffffffffffffffffffffffffffffffffff1673ffffffffffffffffffffffffffffffffffffffff16815260200190815260200160002090508060000160009054906101000a900460ff16611401576040517f08c379a00000000000000000000000000000000000000000000000000000000081526004016113f890614604565b60405180910390fd5b8060020160003373ffffffffffffffffffffffffffffffffffffffff1673ffffffffffffffffffffffffffffffffffffffff16815260200190815260200160002060009054906101000a900460ff1661148f576040517f08c379a000000000000000000000000000000000000000000000000000000000815260040161148690614670565b60405180910390fd5b6000600460003373ffffffffffffffffffffffffffffffffffffffff1673ffffffffffffffffffffffffffffffffffffffff1681526020019081526020016000205490506000611665670de0b6b3a764000085670de0b6b3a76400006114f591906144c8565b6114ff91906143de565b600160009054906101000a900473ffffffffffffffffffffffffffffffffffffffff1673ffffffffffffffffffffffffffffffffffffffff166341976e09896040518263ffffffff1660e01b815260040161155a91906140cd565b602060405180830381865afa158015611577573d6000803e3d6000fd5b505050506040513d601f19601f8201168201806040525081019061159b9190614311565b600160009054906101000a900473ffffffffffffffffffffffffffffffffffffffff1673ffffffffffffffffffffffffffffffffffffffff166341976e098c6040518263ffffffff1660e01b81526004016115f691906140cd565b602060405180830381865afa158015611613573d6000803e3d6000fd5b505050506040513d601f19601f820116820180604052508101906116379190614311565b8a611642919061436d565b61164c91906143de565b611656919061436d565b83613e3390919063ffffffff16565b905080600460003373ffffffffffffffffffffffffffffffffffffffff1673ffffffffffffffffffffffffffffffffffffffff16815260200190815260200160002060008282546116b69190614544565b925050819055508873ffffffffffffffffffffffffffffffffffffffff1663fb3c96128933600160009054906101000a900473ffffffffffffffffffffffffffffffffffffffff1673ffffffffffffffffffffffffffffffffffffffff166341976e098b6040518263ffffffff1660e01b815260040161173691906140cd565b602060405180830381865afa158015611753573d6000803e3d6000fd5b505050506040513d601f19601f820116820180604052508101906117779190614311565b600160009054906101000a900473ffffffffffffffffffffffffffffffffffffffff1673ffffffffffffffffffffffffffffffffffffffff166341976e098e6040518263ffffffff1660e01b81526004016117d291906140cd565b602060405180830381865afa1580156117ef573d6000803e3d6000fd5b505050506040513d601f19601f820116820180604052508101906118139190614311565b8661181e919061436d565b61182891906143de565b6040518463ffffffff1660e01b815260040161184693929190614690565b600060405180830381600087803b15801561186057600080fd5b505af1158015611874573d6000803e3d6000fd5b505050508573ffffffffffffffffffffffffffffffffffffffff1663a9059cbb33836040518363ffffffff1660e01b81526004016118b392919061478c565b6020604051808303816000875af11580156118d2573d6000803e3d6000fd5b505050506040513d601f19601f820116820180604052508101906118f691906146f3565b5050505050505050505050565b60008061190f83612b75565b9050600061191c84612dc1565b905060008103611950577fffffffffffffffffffffffffffffffffffffffffffffffffffffffffffffffff92505050611974565b80670de0b6b3a764000083611965919061436d565b61196f91906143de565b925050505b919050565b611981613db5565b61198b6000613e4c565b565b611995613db5565b600660008273ffffffffffffffffffffffffffffffffffffffff1673ffffffffffffffffffffffffffffffffffffffff16815260200190815260200160002060000160009054906101000a900460ff1615611a89576000600660008373ffffffffffffffffffffffffffffffffffffffff1673ffffffffffffffffffffffffffffffffffffffff16815260200190815260200160002060000160006101000a81548160ff0219169083151502179055508073ffffffffffffffffffffffffffffffffffffffff167f192895f9a14975ce177e9612fd4f4459e31169d79cb650596bcce0622bd70a9260405160405180910390a25b50565b60026020528160005260406000208181548110611aa857600080fd5b906000526020600020016000915091509054906101000a900473ffffffffffffffffffffffffffffffffffffffff1681565b611ae2613db5565b80600160006101000a81548173ffffffffffffffffffffffffffffffffffffffff021916908373ffffffffffffffffffffffffffffffffffffffff1602179055508073ffffffffffffffffffffffffffffffffffffffff167ff261845a790fe29bbd6631e2ca4a5bdc83e6eed7c3271d9590d97287e00e912360405160405180910390a250565b600160009054906101000a900473ffffffffffffffffffffffffffffffffffffffff1681565b60008060009054906101000a900473ffffffffffffffffffffffffffffffffffffffff16905090565b6001600660008373ffffffffffffffffffffffffffffffffffffffff1673ffffffffffffffffffffffffffffffffffffffff16815260200190815260200160002060020160003373ffffffffffffffffffffffffffffffffffffffff1673ffffffffffffffffffffffffffffffffffffffff16815260200190815260200160002060006101000a81548160ff021916908315150217905550600360003373ffffffffffffffffffffffffffffffffffffffff1673ffffffffffffffffffffffffffffffffffffffff168152602001908152602001600020819080600181540180825580915050600190039060005260206000200160009091909190916101000a81548173ffffffffffffffffffffffffffffffffffffffff021916908373ffffffffffffffffffffffffffffffffffffffff16021790555050565b6000600660008473ffffffffffffffffffffffffffffffffffffffff1673ffffffffffffffffffffffffffffffffffffffff16815260200190815260200160002060020160008373ffffffffffffffffffffffffffffffffffffffff1673ffffffffffffffffffffffffffffffffffffffff16815260200190815260200160002060009054906101000a900460ff16905092915050565b6000600560008473ffffffffffffffffffffffffffffffffffffffff1673ffffffffffffffffffffffffffffffffffffffff16815260200190815260200160002060020160008373ffffffffffffffffffffffffffffffffffffffff1673ffffffffffffffffffffffffffffffffffffffff16815260200190815260200160002060009054906101000a900460ff16905092915050565b60056020528060005260406000206000915090508060000160009054906101000a900460ff16908060010154905082565b6000600560008573ffffffffffffffffffffffffffffffffffffffff1673ffffffffffffffffffffffffffffffffffffffff16815260200190815260200160002090508060000160009054906101000a900460ff16611ee6576040517f08c379a0000000000000000000000000000000000000000000000000000000008152600401611edd90614801565b60405180910390fd5b8060020160003373ffffffffffffffffffffffffffffffffffffffff1673ffffffffffffffffffffffffffffffffffffffff16815260200190815260200160002060009054906101000a900460ff16611f74576040517f08c379a0000000000000000000000000000000000000000000000000000000008152600401611f6b9061486d565b60405180910390fd5b6000670de0b6b3a7640000600160009054906101000a900473ffffffffffffffffffffffffffffffffffffffff1673ffffffffffffffffffffffffffffffffffffffff166341976e09866040518263ffffffff1660e01b8152600401611fda91906140cd565b602060405180830381865afa158015611ff7573d6000803e3d6000fd5b505050506040513d601f19601f8201168201806040525081019061201b9190614311565b84612026919061436d565b61203091906143de565b90508473ffffffffffffffffffffffffffffffffffffffff1663b3f1c93d853386856040518563ffffffff1660e01b8152600401612071949392919061488d565b600060405180830381600087803b15801561208b57600080fd5b505af115801561209f573d6000803e3d6000fd5b505050508473ffffffffffffffffffffffffffffffffffffffff16635bf0abbc8533866040518463ffffffff1660e01b81526004016120e093929190614690565b600060405180830381600087803b1580156120fa57600080fd5b505af115801561210e573d6000803e3d6000fd5b505050508373ffffffffffffffffffffffffffffffffffffffff168573ffffffffffffffffffffffffffffffffffffffff163373ffffffffffffffffffffffffffffffffffffffff167f65adeb76912378393e600cb6f64f3310842a42e1eae86273dc775d0c47a0f2dc866040516121869190614063565b60405180910390a45050505050565b6000600660008373ffffffffffffffffffffffffffffffffffffffff1673ffffffffffffffffffffffffffffffffffffffff16815260200190815260200160002060020160003373ffffffffffffffffffffffffffffffffffffffff1673ffffffffffffffffffffffffffffffffffffffff16815260200190815260200160002060006101000a81548160ff02191690831515021790555060005b600360003373ffffffffffffffffffffffffffffffffffffffff1673ffffffffffffffffffffffffffffffffffffffff16815260200190815260200160002080549050811015612527578173ffffffffffffffffffffffffffffffffffffffff16600360003373ffffffffffffffffffffffffffffffffffffffff1673ffffffffffffffffffffffffffffffffffffffff16815260200190815260200160002082815481106122e2576122e1614499565b5b9060005260206000200160009054906101000a900473ffffffffffffffffffffffffffffffffffffffff1673ffffffffffffffffffffffffffffffffffffffff160361251457600360003373ffffffffffffffffffffffffffffffffffffffff1673ffffffffffffffffffffffffffffffffffffffff1681526020019081526020016000206001600360003373ffffffffffffffffffffffffffffffffffffffff1673ffffffffffffffffffffffffffffffffffffffff168152602001908152602001600020805490506123b69190614544565b815481106123c7576123c6614499565b5b9060005260206000200160009054906101000a900473ffffffffffffffffffffffffffffffffffffffff16600360003373ffffffffffffffffffffffffffffffffffffffff1673ffffffffffffffffffffffffffffffffffffffff168152602001908152602001600020828154811061244357612442614499565b5b9060005260206000200160006101000a81548173ffffffffffffffffffffffffffffffffffffffff021916908373ffffffffffffffffffffffffffffffffffffffff160217905550600360003373ffffffffffffffffffffffffffffffffffffffff1673ffffffffffffffffffffffffffffffffffffffff1681526020019081526020016000208054806124da576124d9614578565b5b6001900381819060005260206000200160006101000a81549073ffffffffffffffffffffffffffffffffffffffff02191690559055612527565b808061251f906144fc565b915050612230565b5050565b6000600560008373ffffffffffffffffffffffffffffffffffffffff1673ffffffffffffffffffffffffffffffffffffffff16815260200190815260200160002060020160003373ffffffffffffffffffffffffffffffffffffffff1673ffffffffffffffffffffffffffffffffffffffff16815260200190815260200160002060006101000a81548160ff02191690831515021790555060005b600260003373ffffffffffffffffffffffffffffffffffffffff1673ffffffffffffffffffffffffffffffffffffffff168152602001908152602001600020805490508110156128bd578173ffffffffffffffffffffffffffffffffffffffff16600260003373ffffffffffffffffffffffffffffffffffffffff1673ffffffffffffffffffffffffffffffffffffffff168152602001908152602001600020828154811061267857612677614499565b5b9060005260206000200160009054906101000a900473ffffffffffffffffffffffffffffffffffffffff1673ffffffffffffffffffffffffffffffffffffffff16036128aa57600260003373ffffffffffffffffffffffffffffffffffffffff1673ffffffffffffffffffffffffffffffffffffffff1681526020019081526020016000206001600260003373ffffffffffffffffffffffffffffffffffffffff1673ffffffffffffffffffffffffffffffffffffffff1681526020019081526020016000208054905061274c9190614544565b8154811061275d5761275c614499565b5b9060005260206000200160009054906101000a900473ffffffffffffffffffffffffffffffffffffffff16600260003373ffffffffffffffffffffffffffffffffffffffff1673ffffffffffffffffffffffffffffffffffffffff16815260200190815260200160002082815481106127d9576127d8614499565b5b9060005260206000200160006101000a81548173ffffffffffffffffffffffffffffffffffffffff021916908373ffffffffffffffffffffffffffffffffffffffff160217905550600260003373ffffffffffffffffffffffffffffffffffffffff1673ffffffffffffffffffffffffffffffffffffffff1681526020019081526020016000208054806128705761286f614578565b5b6001900381819060005260206000200160006101000a81549073ffffffffffffffffffffffffffffffffffffffff021916905590556128bd565b80806128b5906144fc565b9150506125c6565b5050565b6128c9613db5565b6000600660008373ffffffffffffffffffffffffffffffffffffffff1673ffffffffffffffffffffffffffffffffffffffff16815260200190815260200160002060000160006101000a81548160ff02191690831515021790555060005b600880549050811015612af3578173ffffffffffffffffffffffffffffffffffffffff166008828154811061295f5761295e614499565b5b9060005260206000200160009054906101000a900473ffffffffffffffffffffffffffffffffffffffff1673ffffffffffffffffffffffffffffffffffffffff1603612ae057600860016008805490506129b99190614544565b815481106129ca576129c9614499565b5b9060005260206000200160009054906101000a900473ffffffffffffffffffffffffffffffffffffffff1660088281548110612a0957612a08614499565b5b9060005260206000200160006101000a81548173ffffffffffffffffffffffffffffffffffffffff021916908373ffffffffffffffffffffffffffffffffffffffff1602179055506008805480612a6357612a62614578565b5b6001900381819060005260206000200160006101000a81549073ffffffffffffffffffffffffffffffffffffffff021916905590558173ffffffffffffffffffffffffffffffffffffffff167fd89d2ee68ab04dca0193f48a4aff55e20fa5ec0429a8a8c1c51b8dad6178a59360405160405180910390a2612af3565b8080612aeb906144fc565b915050612927565b5050565b60078181548110612b0757600080fd5b906000526020600020016000915054906101000a900473ffffffffffffffffffffffffffffffffffffffff1681565b60088181548110612b4657600080fd5b906000526020600020016000915054906101000a900473ffffffffffffffffffffffffffffffffffffffff1681565b6000806000905060005b600360008573ffffffffffffffffffffffffffffffffffffffff1673ffffffffffffffffffffffffffffffffffffffff16815260200190815260200160002080549050811015612db7576000600360008673ffffffffffffffffffffffffffffffffffffffff1673ffffffffffffffffffffffffffffffffffffffff1681526020019081526020016000208281548110612c1c57612c1b614499565b5b9060005260206000200160009054906101000a900473ffffffffffffffffffffffffffffffffffffffff1690506ec097ce7bc90715b34b9f1000000000600660008373ffffffffffffffffffffffffffffffffffffffff1673ffffffffffffffffffffffffffffffffffffffff16815260200190815260200160002060010154600160009054906101000a900473ffffffffffffffffffffffffffffffffffffffff1673ffffffffffffffffffffffffffffffffffffffff166341976e09846040518263ffffffff1660e01b8152600401612cf791906140cd565b602060405180830381865afa158015612d14573d6000803e3d6000fd5b505050506040513d601f19601f82011682018060405250810190612d389190614311565b600460008973ffffffffffffffffffffffffffffffffffffffff1673ffffffffffffffffffffffffffffffffffffffff16815260200190815260200160002054612d82919061436d565b612d8c919061436d565b612d9691906143de565b83612da191906144c8565b9250508080612daf906144fc565b915050612b7f565b5080915050919050565b600080600090506000600260008573ffffffffffffffffffffffffffffffffffffffff1673ffffffffffffffffffffffffffffffffffffffff168152602001908152602001600020805480602002602001604051908101604052809291908181526020018280548015612e8957602002820191906000526020600020905b8160009054906101000a900473ffffffffffffffffffffffffffffffffffffffff1673ffffffffffffffffffffffffffffffffffffffff1681526020019060010190808311612e3f575b5050505050905060005b8151811015612f6057600060056000848481518110612eb557612eb4614499565b5b602002602001015173ffffffffffffffffffffffffffffffffffffffff1673ffffffffffffffffffffffffffffffffffffffff16815260200190815260200160002090508060010154670de0b6b3a7640000612f2b88868681518110612f1e57612f1d614499565b5b6020026020010151610b7d565b612f35919061436d565b612f3f91906143de565b84612f4a91906144c8565b9350508080612f58906144fc565b915050612e93565b508192505050919050565b60066020528060005260406000206000915090508060000160009054906101000a900460ff16908060010154905082565b612fa583613c4e565b612fb0838383611e52565b505050565b612fbd613db5565b600073ffffffffffffffffffffffffffffffffffffffff168173ffffffffffffffffffffffffffffffffffffffff160361302c576040517f08c379a000000000000000000000000000000000000000000000000000000000815260040161302390614944565b60405180910390fd5b61303581613e4c565b50565b80600460003373ffffffffffffffffffffffffffffffffffffffff1673ffffffffffffffffffffffffffffffffffffffff1681526020019081526020016000205410156130ba576040517f08c379a00000000000000000000000000000000000000000000000000000000081526004016130b1906149b0565b60405180910390fd5b8173ffffffffffffffffffffffffffffffffffffffff1663a9059cbb33836040518363ffffffff1660e01b81526004016130f592919061478c565b6020604051808303816000875af1158015613114573d6000803e3d6000fd5b505050506040513d601f19601f8201168201806040525081019061313891906146f3565b5080600460003373ffffffffffffffffffffffffffffffffffffffff1673ffffffffffffffffffffffffffffffffffffffff16815260200190815260200160002060008282546131889190614544565b92505081905550670de0b6b3a76400006131a133611903565b116131e1576040517f08c379a00000000000000000000000000000000000000000000000000000000081526004016131d890614a1c565b60405180910390fd5b8173ffffffffffffffffffffffffffffffffffffffff163373ffffffffffffffffffffffffffffffffffffffff167f9b1bfa7fa9ee420a16e124f794c35ac9f90472acc99140eb2f6447c714cad8eb8360405161323e9190614063565b60405180910390a35050565b613252613db5565b6000600560008473ffffffffffffffffffffffffffffffffffffffff1673ffffffffffffffffffffffffffffffffffffffff16815260200190815260200160002090508060000160009054906101000a900460ff166133835760018160000160006101000a81548160ff0219169083151502179055508181600101819055506007839080600181540180825580915050600190039060005260206000200160009091909190916101000a81548173ffffffffffffffffffffffffffffffffffffffff021916908373ffffffffffffffffffffffffffffffffffffffff1602179055508273ffffffffffffffffffffffffffffffffffffffff167ffe83615d888076df1cf968a4c6694405f082fa2b2b353afde0af6438a9af7c0b8360405161337a9190614063565b60405180910390a25b505050565b6000600560008573ffffffffffffffffffffffffffffffffffffffff1673ffffffffffffffffffffffffffffffffffffffff16815260200190815260200160002090508060000160009054906101000a900460ff1661341c576040517f08c379a000000000000000000000000000000000000000000000000000000000815260040161341390614801565b60405180910390fd5b8060020160003373ffffffffffffffffffffffffffffffffffffffff1673ffffffffffffffffffffffffffffffffffffffff16815260200190815260200160002060009054906101000a900460ff166134aa576040517f08c379a00000000000000000000000000000000000000000000000000000000081526004016134a19061486d565b60405180910390fd5b6000670de0b6b3a7640000600160009054906101000a900473ffffffffffffffffffffffffffffffffffffffff1673ffffffffffffffffffffffffffffffffffffffff166341976e09866040518263ffffffff1660e01b815260040161351091906140cd565b602060405180830381865afa15801561352d573d6000803e3d6000fd5b505050506040513d601f19601f820116820180604052508101906135519190614311565b8461355c919061436d565b61356691906143de565b90508473ffffffffffffffffffffffffffffffffffffffff1663d7020d0a853386856040518563ffffffff1660e01b81526004016135a7949392919061488d565b600060405180830381600087803b1580156135c157600080fd5b505af11580156135d5573d6000803e3d6000fd5b505050508473ffffffffffffffffffffffffffffffffffffffff1663fb3c96128533866040518463ffffffff1660e01b815260040161361693929190614690565b600060405180830381600087803b15801561363057600080fd5b505af1158015613644573d6000803e3d6000fd5b505050508373ffffffffffffffffffffffffffffffffffffffff168573ffffffffffffffffffffffffffffffffffffffff163373ffffffffffffffffffffffffffffffffffffffff167ff8a861f822ed8ac8743e429937c8bb8952ca8617a40319ef7fde892039aac128866040516136bc9190614063565b60405180910390a45050505050565b6000808273ffffffffffffffffffffffffffffffffffffffff1663af8083da6040518163ffffffff1660e01b8152600401600060405180830381865afa158015613719573d6000803e3d6000fd5b505050506040513d6000823e3d601f19601f820116820180604052508101906137429190614baa565b90506000805b82518110156138b957600083828151811061376657613765614499565b5b60200260200101519050670de0b6b3a7640000600160009054906101000a900473ffffffffffffffffffffffffffffffffffffffff1673ffffffffffffffffffffffffffffffffffffffff166341976e09836040518263ffffffff1660e01b81526004016137d491906140cd565b602060405180830381865afa1580156137f1573d6000803e3d6000fd5b505050506040513d601f19601f820116820180604052508101906138159190614311565b8273ffffffffffffffffffffffffffffffffffffffff166318160ddd6040518163ffffffff1660e01b8152600401602060405180830381865afa158015613860573d6000803e3d6000fd5b505050506040513d601f19601f820116820180604052508101906138849190614311565b61388e919061436d565b61389891906143de565b836138a391906144c8565b92505080806138b1906144fc565b915050613748565b508092505050919050565b6138cc613db5565b6000600660008473ffffffffffffffffffffffffffffffffffffffff1673ffffffffffffffffffffffffffffffffffffffff16815260200190815260200160002090508060000160009054906101000a900460ff166139fd5760018160000160006101000a81548160ff0219169083151502179055508181600101819055506008839080600181540180825580915050600190039060005260206000200160009091909190916101000a81548173ffffffffffffffffffffffffffffffffffffffff021916908373ffffffffffffffffffffffffffffffffffffffff1602179055508273ffffffffffffffffffffffffffffffffffffffff167f0dabbae73ad87de9f00d48ce6bc2fdee3a04023481e61ba06071d8d35b56951d836040516139f49190614063565b60405180910390a25b505050565b6000806000905060005b600360008573ffffffffffffffffffffffffffffffffffffffff1673ffffffffffffffffffffffffffffffffffffffff16815260200190815260200160002080549050811015613c44576000600360008673ffffffffffffffffffffffffffffffffffffffff1673ffffffffffffffffffffffffffffffffffffffff1681526020019081526020016000208281548110613aa957613aa8614499565b5b9060005260206000200160009054906101000a900473ffffffffffffffffffffffffffffffffffffffff1690506ec097ce7bc90715b34b9f1000000000600660008373ffffffffffffffffffffffffffffffffffffffff1673ffffffffffffffffffffffffffffffffffffffff16815260200190815260200160002060010154600160009054906101000a900473ffffffffffffffffffffffffffffffffffffffff1673ffffffffffffffffffffffffffffffffffffffff166341976e09846040518263ffffffff1660e01b8152600401613b8491906140cd565b602060405180830381865afa158015613ba1573d6000803e3d6000fd5b505050506040513d601f19601f82011682018060405250810190613bc59190614311565b600460008973ffffffffffffffffffffffffffffffffffffffff1673ffffffffffffffffffffffffffffffffffffffff16815260200190815260200160002054613c0f919061436d565b613c19919061436d565b613c2391906143de565b83613c2e91906144c8565b9250508080613c3c906144fc565b915050613a0c565b5080915050919050565b6001600560008373ffffffffffffffffffffffffffffffffffffffff1673ffffffffffffffffffffffffffffffffffffffff16815260200190815260200160002060020160003373ffffffffffffffffffffffffffffffffffffffff1673ffffffffffffffffffffffffffffffffffffffff16815260200190815260200160002060006101000a81548160ff021916908315150217905550600260003373ffffffffffffffffffffffffffffffffffffffff1673ffffffffffffffffffffffffffffffffffffffff168152602001908152602001600020819080600181540180825580915050600190039060005260206000200160009091909190916101000a81548173ffffffffffffffffffffffffffffffffffffffff021916908373ffffffffffffffffffffffffffffffffffffffff16021790555050565b60008183613d97919061436d565b905092915050565b60008183613dad91906143de565b905092915050565b613dbd613f10565b73ffffffffffffffffffffffffffffffffffffffff16613ddb611b8f565b73ffffffffffffffffffffffffffffffffffffffff1614613e31576040517f08c379a0000000000000000000000000000000000000000000000000000000008152600401613e2890614c3f565b60405180910390fd5b565b6000818311613e425781613e44565b825b905092915050565b60008060009054906101000a900473ffffffffffffffffffffffffffffffffffffffff169050816000806101000a81548173ffffffffffffffffffffffffffffffffffffffff021916908373ffffffffffffffffffffffffffffffffffffffff1602179055508173ffffffffffffffffffffffffffffffffffffffff168173ffffffffffffffffffffffffffffffffffffffff167f8be0079c531659141344cd1fd0a4f28419497f9722a3daafe3b4186f6b6457e060405160405180910390a35050565b600033905090565b6000604051905090565b600080fd5b600080fd5b600073ffffffffffffffffffffffffffffffffffffffff82169050919050565b6000613f5782613f2c565b9050919050565b613f6781613f4c565b8114613f7257600080fd5b50565b600081359050613f8481613f5e565b92915050565b6000819050919050565b613f9d81613f8a565b8114613fa857600080fd5b50565b600081359050613fba81613f94565b92915050565b60008060008060808587031215613fda57613fd9613f22565b5b6000613fe887828801613f75565b9450506020613ff987828801613f75565b935050604061400a87828801613f75565b925050606061401b87828801613fab565b91505092959194509250565b60006020828403121561403d5761403c613f22565b5b600061404b84828501613f75565b91505092915050565b61405d81613f8a565b82525050565b60006020820190506140786000830184614054565b92915050565b6000806040838503121561409557614094613f22565b5b60006140a385828601613f75565b92505060206140b485828601613fab565b9150509250929050565b6140c781613f4c565b82525050565b60006020820190506140e260008301846140be565b92915050565b600080604083850312156140ff576140fe613f22565b5b600061410d85828601613f75565b925050602061411e85828601613f75565b9150509250929050565b600080600080600060a0868803121561414457614143613f22565b5b600061415288828901613f75565b955050602061416388828901613f75565b945050604061417488828901613f75565b935050606061418588828901613fab565b925050608061419688828901613f75565b9150509295509295909350565b6000819050919050565b60006141c86141c36141be84613f2c565b6141a3565b613f2c565b9050919050565b60006141da826141ad565b9050919050565b60006141ec826141cf565b9050919050565b6141fc816141e1565b82525050565b600060208201905061421760008301846141f3565b92915050565b60008115159050919050565b6142328161421d565b82525050565b600060208201905061424d6000830184614229565b92915050565b60006040820190506142686000830185614229565b6142756020830184614054565b9392505050565b60008060006060848603121561429557614294613f22565b5b60006142a386828701613f75565b93505060206142b486828701613f75565b92505060406142c586828701613fab565b9150509250925092565b6000602082840312156142e5576142e4613f22565b5b60006142f384828501613fab565b91505092915050565b60008151905061430b81613f94565b92915050565b60006020828403121561432757614326613f22565b5b6000614335848285016142fc565b91505092915050565b7f4e487b7100000000000000000000000000000000000000000000000000000000600052601160045260246000fd5b600061437882613f8a565b915061438383613f8a565b925082820261439181613f8a565b915082820484148315176143a8576143a761433e565b5b5092915050565b7f4e487b7100000000000000000000000000000000000000000000000000000000600052601260045260246000fd5b60006143e982613f8a565b91506143f483613f8a565b925082614404576144036143af565b5b828204905092915050565b600060a08201905061442460008301886140be565b61443160208301876140be565b61443e60408301866140be565b61444b6060830185614054565b6144586080830184614054565b9695505050505050565b600060608201905061447760008301866140be565b6144846020830185614054565b6144916040830184614054565b949350505050565b7f4e487b7100000000000000000000000000000000000000000000000000000000600052603260045260246000fd5b60006144d382613f8a565b91506144de83613f8a565b92508282019050808211156144f6576144f561433e565b5b92915050565b600061450782613f8a565b91507fffffffffffffffffffffffffffffffffffffffffffffffffffffffffffffffff82036145395761453861433e565b5b600182019050919050565b600061454f82613f8a565b915061455a83613f8a565b92508282039050818111156145725761457161433e565b5b92915050565b7f4e487b7100000000000000000000000000000000000000000000000000000000600052603160045260246000fd5b600082825260208201905092915050565b7f436f6c6c61746572616c206e6f7420656e61626c656400000000000000000000600082015250565b60006145ee6016836145a7565b91506145f9826145b8565b602082019050919050565b6000602082019050818103600083015261461d816145e1565b9050919050565b7f4163636f756e74206e6f7420696e20636f6c6c61746572616c00000000000000600082015250565b600061465a6019836145a7565b915061466582614624565b602082019050919050565b600060208201905081810360008301526146898161464d565b9050919050565b60006060820190506146a560008301866140be565b6146b260208301856140be565b6146bf6040830184614054565b949350505050565b6146d08161421d565b81146146db57600080fd5b50565b6000815190506146ed816146c7565b92915050565b60006020828403121561470957614708613f22565b5b6000614717848285016146de565b91505092915050565b7f4865616c746820666163746f722061626f766520310000000000000000000000600082015250565b60006147566015836145a7565b915061476182614720565b602082019050919050565b6000602082019050818103600083015261478581614749565b9050919050565b60006040820190506147a160008301856140be565b6147ae6020830184614054565b9392505050565b7f54726164696e6720706f6f6c206e6f7420656e61626c65640000000000000000600082015250565b60006147eb6018836145a7565b91506147f6826147b5565b602082019050919050565b6000602082019050818103600083015261481a816147de565b9050919050565b7f4163636f756e74206e6f7420696e2074726164696e6720706f6f6c0000000000600082015250565b6000614857601b836145a7565b915061486282614821565b602082019050919050565b600060208201905081810360008301526148868161484a565b9050919050565b60006080820190506148a260008301876140be565b6148af60208301866140be565b6148bc6040830185614054565b6148c96060830184614054565b95945050505050565b7f4f776e61626c653a206e6577206f776e657220697320746865207a65726f206160008201527f6464726573730000000000000000000000000000000000000000000000000000602082015250565b600061492e6026836145a7565b9150614939826148d2565b604082019050919050565b6000602082019050818103600083015261495d81614921565b9050919050565b7f496e73756666696369656e742062616c616e6365000000000000000000000000600082015250565b600061499a6014836145a7565b91506149a582614964565b602082019050919050565b600060208201905081810360008301526149c98161498d565b9050919050565b7f4865616c746820666163746f722062656c6f7720310000000000000000000000600082015250565b6000614a066015836145a7565b9150614a11826149d0565b602082019050919050565b60006020820190508181036000830152614a35816149f9565b9050919050565b600080fd5b6000601f19601f8301169050919050565b7f4e487b7100000000000000000000000000000000000000000000000000000000600052604160045260246000fd5b614a8a82614a41565b810181811067ffffffffffffffff82111715614aa957614aa8614a52565b5b80604052505050565b6000614abc613f18565b9050614ac88282614a81565b919050565b600067ffffffffffffffff821115614ae857614ae7614a52565b5b602082029050602081019050919050565b600080fd5b600081519050614b0d81613f5e565b92915050565b6000614b26614b2184614acd565b614ab2565b90508083825260208201905060208402830185811115614b4957614b48614af9565b5b835b81811015614b725780614b5e8882614afe565b845260208401935050602081019050614b4b565b5050509392505050565b600082601f830112614b9157614b90614a3c565b5b8151614ba1848260208601614b13565b91505092915050565b600060208284031215614bc057614bbf613f22565b5b600082015167ffffffffffffffff811115614bde57614bdd613f27565b5b614bea84828501614b7c565b91505092915050565b7f4f776e61626c653a2063616c6c6572206973206e6f7420746865206f776e6572600082015250565b6000614c296020836145a7565b9150614c3482614bf3565b602082019050919050565b60006020820190508181036000830152614c5881614c1c565b905091905056fea26469706673582212209d68e798dbae4ad39cfd8ee5b03e1986f2d030febced50b58b52498affeed33564736f6c63430008110033",
  "linkReferences": {},
  "deployedLinkReferences": {}
}