{
  "contractName": "WTRX",
  "abi": [
    {
      "inputs": [],
      "stateMutability": "nonpayable",
      "type": "constructor"
    },
    {
      "anonymous": false,
      "inputs": [
        {
          "indexed": true,
          "internalType": "address",
          "name": "owner",
          "type": "address"
        },
        {
          "indexed": true,
          "internalType": "address",
          "name": "spender",
          "type": "address"
        },
        {
          "indexed": false,
          "internalType": "uint256",
          "name": "value",
          "type": "uint256"
        }
      ],
      "name": "Approval",
      "type": "event"
    },
    {
      "anonymous": false,
      "inputs": [
        {
          "indexed": true,
          "internalType": "address",
          "name": "user",
          "type": "address"
        },
        {
          "indexed": false,
          "internalType": "uint256",
          "name": "amount",
          "type": "uint256"
        }
      ],
      "name": "Claim",
      "type": "event"
    },
    {
      "anonymous": false,
      "inputs": [
        {
          "indexed": true,
          "internalType": "address",
          "name": "from",
          "type": "address"
        },
        {
          "indexed": true,
          "internalType": "address",
          "name": "to",
          "type": "address"
        },
        {
          "indexed": false,
          "internalType": "uint256",
          "name": "value",
          "type": "uint256"
        }
      ],
      "name": "Transfer",
      "type": "event"
    },
    {
      "stateMutability": "nonpayable",
      "type": "fallback"
    },
    {
      "inputs": [
        {
          "internalType": "address",
          "name": "owner",
          "type": "address"
        },
        {
          "internalType": "address",
          "name": "spender",
          "type": "address"
        }
      ],
      "name": "allowance",
      "outputs": [
        {
          "internalType": "uint256",
          "name": "",
          "type": "uint256"
        }
      ],
      "stateMutability": "view",
      "type": "function"
    },
    {
      "inputs": [
        {
          "internalType": "address",
          "name": "spender",
          "type": "address"
        },
        {
          "internalType": "uint256",
          "name": "amount",
          "type": "uint256"
        }
      ],
      "name": "approve",
      "outputs": [
        {
          "internalType": "bool",
          "name": "",
          "type": "bool"
        }
      ],
      "stateMutability": "nonpayable",
      "type": "function"
    },
    {
      "inputs": [
        {
          "internalType": "address",
          "name": "account",
          "type": "address"
        }
      ],
      "name": "balanceOf",
      "outputs": [
        {
          "internalType": "uint256",
          "name": "",
          "type": "uint256"
        }
      ],
      "stateMutability": "view",
      "type": "function"
    },
    {
      "inputs": [],
      "name": "decimals",
      "outputs": [
        {
          "internalType": "uint8",
          "name": "",
          "type": "uint8"
        }
      ],
      "stateMutability": "view",
      "type": "function"
    },
    {
      "inputs": [
        {
          "internalType": "address",
          "name": "spender",
          "type": "address"
        },
        {
          "internalType": "uint256",
          "name": "subtractedValue",
          "type": "uint256"
        }
      ],
      "name": "decreaseAllowance",
      "outputs": [
        {
          "internalType": "bool",
          "name": "",
          "type": "bool"
        }
      ],
      "stateMutability": "nonpayable",
      "type": "function"
    },
    {
      "inputs": [],
      "name": "deposit",
      "outputs": [],
      "stateMutability": "nonpayable",
      "type": "function"
    },
    {
      "inputs": [
        {
          "internalType": "address",
          "name": "spender",
          "type": "address"
        },
        {
          "internalType": "uint256",
          "name": "addedValue",
          "type": "uint256"
        }
      ],
      "name": "increaseAllowance",
      "outputs": [
        {
          "internalType": "bool",
          "name": "",
          "type": "bool"
        }
      ],
      "stateMutability": "nonpayable",
      "type": "function"
    },
    {
      "inputs": [],
      "name": "name",
      "outputs": [
        {
          "internalType": "string",
          "name": "",
          "type": "string"
        }
      ],
      "stateMutability": "view",
      "type": "function"
    },
    {
      "inputs": [],
      "name": "symbol",
      "outputs": [
        {
          "internalType": "string",
          "name": "",
          "type": "string"
        }
      ],
      "stateMutability": "view",
      "type": "function"
    },
    {
      "inputs": [],
      "name": "totalSupply",
      "outputs": [
        {
          "internalType": "uint256",
          "name": "",
          "type": "uint256"
        }
      ],
      "stateMutability": "view",
      "type": "function"
    },
    {
      "inputs": [
        {
          "internalType": "address",
          "name": "to",
          "type": "address"
        },
        {
          "internalType": "uint256",
          "name": "amount",
          "type": "uint256"
        }
      ],
      "name": "transfer",
      "outputs": [
        {
          "internalType": "bool",
          "name": "",
          "type": "bool"
        }
      ],
      "stateMutability": "nonpayable",
      "type": "function"
    },
    {
      "inputs": [
        {
          "internalType": "address",
          "name": "from",
          "type": "address"
        },
        {
          "internalType": "address",
          "name": "to",
          "type": "address"
        },
        {
          "internalType": "uint256",
          "name": "amount",
          "type": "uint256"
        }
      ],
      "name": "transferFrom",
      "outputs": [
        {
          "internalType": "bool",
          "name": "",
          "type": "bool"
        }
      ],
      "stateMutability": "nonpayable",
      "type": "function"
    }
  ],
  "bytecode": "0x60806040523480156200001157600080fd5b50d380156200001f57600080fd5b50d280156200002d57600080fd5b50604080518082018252600b81526a0aee4c2e0e0cac840a8a4b60ab1b6020808301918252835180850190945260048452630aea8a4b60e31b9084015281519192916200007d916003916200009c565b508051620000939060049060208401906200009c565b5050506200017f565b828054620000aa9062000142565b90600052602060002090601f016020900481019282620000ce576000855562000119565b82601f10620000e957805160ff191683800117855562000119565b8280016001018555821562000119579182015b8281111562000119578251825591602001919060010190620000fc565b50620001279291506200012b565b5090565b5b808211156200012757600081556001016200012c565b600181811c908216806200015757607f821691505b602082108114156200017957634e487b7160e01b600052602260045260246000fd5b50919050565b610c2d806200018f6000396000f3fe608060405234801561001057600080fd5b50d3801561001d57600080fd5b50d2801561002a57600080fd5b50600436106100ee5760003560e01c806370a082311161009b578063a9059cbb11610075578063a9059cbb146101c4578063d0e30db0146100ee578063dd62ed3e146101d7576100ee565b806370a082311461018057806395d89b41146101a9578063a457c2d7146101b1576100ee565b806323b872dd116100cc57806323b872dd1461014b578063313ce5671461015e578063395093511461016d576100ee565b806306fdde03146100f8578063095ea7b31461011657806318160ddd14610139575b6100f6610210565b005b610100610280565b60405161010d9190610a2c565b60405180910390f35b610129610124366004610a02565b610312565b604051901515815260200161010d565b6002545b60405190815260200161010d565b6101296101593660046109c6565b61032c565b6040516006815260200161010d565b61012961017b366004610a02565b610350565b61013d61018e366004610971565b6001600160a01b031660009081526020819052604090205490565b61010061038f565b6101296101bf366004610a02565b61039e565b6101296101d2366004610a02565b61044d565b61013d6101e5366004610993565b6001600160a01b03918216600090815260016020908152604080832093909416825291909152205490565b610232336102206006600a610adc565b61022d90620186a0610b87565b61045b565b337f47cee97cb7acd717b3c0aa1435d004cd5b3c8c57d70dbceb4e4458bbd60e39d46102606006600a610adc565b61026d90620186a0610b87565b60405190815260200160405180910390a2565b60606003805461028f90610ba6565b80601f01602080910402602001604051908101604052809291908181526020018280546102bb90610ba6565b80156103085780601f106102dd57610100808354040283529160200191610308565b820191906000526020600020905b8154815290600101906020018083116102eb57829003601f168201915b5050505050905090565b60003361032081858561053a565b60019150505b92915050565b60003361033a858285610692565b610345858585610724565b506001949350505050565b3360008181526001602090815260408083206001600160a01b0387168452909152812054909190610320908290869061038a908790610a81565b61053a565b60606004805461028f90610ba6565b3360008181526001602090815260408083206001600160a01b0387168452909152812054909190838110156104405760405162461bcd60e51b815260206004820152602560248201527f45524332303a2064656372656173656420616c6c6f77616e63652062656c6f7760448201527f207a65726f00000000000000000000000000000000000000000000000000000060648201526084015b60405180910390fd5b610345828686840361053a565b600033610320818585610724565b6001600160a01b0382166104b15760405162461bcd60e51b815260206004820152601f60248201527f45524332303a206d696e7420746f20746865207a65726f2061646472657373006044820152606401610437565b80600260008282546104c39190610a81565b90915550506001600160a01b038216600090815260208190526040812080548392906104f0908490610a81565b90915550506040518181526001600160a01b038316906000907fddf252ad1be2c89b69c2b068fc378daa952ba7f163c4a11628f55a4df523b3ef9060200160405180910390a35050565b6001600160a01b0383166105b55760405162461bcd60e51b8152602060048201526024808201527f45524332303a20617070726f76652066726f6d20746865207a65726f2061646460448201527f72657373000000000000000000000000000000000000000000000000000000006064820152608401610437565b6001600160a01b0382166106315760405162461bcd60e51b815260206004820152602260248201527f45524332303a20617070726f766520746f20746865207a65726f20616464726560448201527f73730000000000000000000000000000000000000000000000000000000000006064820152608401610437565b6001600160a01b0383811660008181526001602090815260408083209487168084529482529182902085905590518481527f8c5be1e5ebec7d5bd14f71427d1e84f3dd0314c0f7b2291e5b200ac8c7c3b925910160405180910390a3505050565b6001600160a01b03838116600090815260016020908152604080832093861683529290522054600019811461071e57818110156107115760405162461bcd60e51b815260206004820152601d60248201527f45524332303a20696e73756666696369656e7420616c6c6f77616e63650000006044820152606401610437565b61071e848484840361053a565b50505050565b6001600160a01b0383166107a05760405162461bcd60e51b815260206004820152602560248201527f45524332303a207472616e736665722066726f6d20746865207a65726f20616460448201527f64726573730000000000000000000000000000000000000000000000000000006064820152608401610437565b6001600160a01b03821661081c5760405162461bcd60e51b815260206004820152602360248201527f45524332303a207472616e7366657220746f20746865207a65726f206164647260448201527f65737300000000000000000000000000000000000000000000000000000000006064820152608401610437565b6001600160a01b038316600090815260208190526040902054818110156108ab5760405162461bcd60e51b815260206004820152602660248201527f45524332303a207472616e7366657220616d6f756e742065786365656473206260448201527f616c616e636500000000000000000000000000000000000000000000000000006064820152608401610437565b6001600160a01b038085166000908152602081905260408082208585039055918516815290812080548492906108e2908490610a81565b92505081905550826001600160a01b0316846001600160a01b03167fddf252ad1be2c89b69c2b068fc378daa952ba7f163c4a11628f55a4df523b3ef8460405161092e91815260200190565b60405180910390a361071e565b6000813574ffffffffffffffffffffffffffffffffffffffffff8116811461096257600080fd5b6001600160a01b031692915050565b60006020828403121561098357600080fd5b61098c8261093b565b9392505050565b600080604083850312156109a657600080fd5b6109af8361093b565b91506109bd6020840161093b565b90509250929050565b6000806000606084860312156109db57600080fd5b6109e48461093b565b92506109f26020850161093b565b9150604084013590509250925092565b60008060408385031215610a1557600080fd5b610a1e8361093b565b946020939093013593505050565b600060208083528351808285015260005b81811015610a5957858101830151858201604001528201610a3d565b81811115610a6b576000604083870101525b50601f01601f1916929092016040019392505050565b60008219821115610a9457610a94610be1565b500190565b600181815b80851115610ad4578160001904821115610aba57610aba610be1565b80851615610ac757918102915b93841c9390800290610a9e565b509250929050565b600061098c60ff841683600082610af557506001610326565b81610b0257506000610326565b8160018114610b185760028114610b2257610b3e565b6001915050610326565b60ff841115610b3357610b33610be1565b50506001821b610326565b5060208310610133831016604e8410600b8410161715610b61575081810a610326565b610b6b8383610a99565b8060001904821115610b7f57610b7f610be1565b029392505050565b6000816000190483118215151615610ba157610ba1610be1565b500290565b600181811c90821680610bba57607f821691505b60208210811415610bdb57634e487b7160e01b600052602260045260246000fd5b50919050565b634e487b7160e01b600052601160045260246000fdfea26474726f6e58221220931581c07a336b5288a7f97e99488854f8790bfe76dc8560b4a20d9dfe6a1e1f64736f6c63430008060033",
  "source": "// SPDX-License-Identifier: MIT\npragma solidity ^0.8.6;\n\nimport \"@openzeppelin/contracts/token/ERC20/ERC20.sol\";\n\ncontract WTRX is ERC20 {\n    event Claim(address indexed user, uint amount);\n\n    constructor() ERC20(\"Wrapped TRX\", \"WTRX\") {}\n\n    fallback() external { \n        deposit();\n    }\n\n    function decimals() public view virtual override returns (uint8) {\n        return 6;\n    }\n    \n    function deposit() public {\n        _mint(msg.sender, 100000*10**decimals());\n        emit Claim(msg.sender, 100000*10**decimals());\n    }\n}",
  "sourcePath": "/Users/prasad/projects/synthex/contracts/contracts/mock/WTRX.sol",
  "compiler": {
    "name": "solc",
    "version": "0.8.6+commit.0e36fba0.mod.Emscripten.clang"
  },
  "schemaVersion": "2.0.1",
  "updatedAt": "2022-10-18T05:13:13.119Z"
}